{
    "contractName": "Migrations",
    "abi": [
        {
            "constant": true,
            "inputs": [],
            "name": "last_completed_migration",
            "outputs": [
                {
                    "name": "",
                    "type": "uint256"
                }
            ],
            "payable": false,
            "stateMutability": "view",
            "type": "function"
        },
        {
            "constant": true,
            "inputs": [],
            "name": "owner",
            "outputs": [
                {
                    "name": "",
                    "type": "address"
                }
            ],
            "payable": false,
            "stateMutability": "view",
            "type": "function"
        },
        {
            "constant": false,
            "inputs": [
                {
                    "name": "completed",
                    "type": "uint256"
                }
            ],
            "name": "setCompleted",
            "outputs": [],
            "payable": false,
            "stateMutability": "nonpayable",
            "type": "function"
        },
        {
            "inputs": [],
            "payable": false,
            "stateMutability": "nonpayable",
            "type": "constructor"
        }
    ],
    "bytecode": "608060405234801561001057600080fd5b5060008054600160a060020a03191633179055610163806100326000396000f3fe6080604052600436106100565763ffffffff7c0100000000000000000000000000000000000000000000000000000000600035041663445df0ac811461005b5780638da5cb5b14610082578063fdacd576146100c0575b600080fd5b34801561006757600080fd5b506100706100ec565b60408051918252519081900360200190f35b34801561008e57600080fd5b506100976100f2565b6040805173ffffffffffffffffffffffffffffffffffffffff9092168252519081900360200190f35b3480156100cc57600080fd5b506100ea600480360360208110156100e357600080fd5b503561010e565b005b60015481565b60005473ffffffffffffffffffffffffffffffffffffffff1681565b60005473ffffffffffffffffffffffffffffffffffffffff163314156101345760018190555b5056fea165627a7a72305820d48c5d29c0e6f475d4cf15ed53b5428cab8962cf1fd59e58615540d44f6b42400029",
    "sourcePath": "c:/Users/PC ASUS/election/contracts/Migrations.sol",
    "compiler": {
        "name": "solc",
        "version": "0.5.0+commit.1d4f565a"
    },
    "functionHashes": {
        "last_completed_migration()": "445df0ac",
        "owner()": "8da5cb5b",
        "setCompleted(uint256)": "fdacd576"
    },
    "gasEstimates": {
        "creation": {
            "codeDepositCost": "71000",
            "executionCost": "20415",
            "totalCost": "91415"
        },
        "external": {
            "last_completed_migration()": "384",
            "owner()": "421",
            "setCompleted(uint256)": "20458"
        }
    }
}